:020000041000EA
:1000000000B5324B212058609868022188439860DF
:10001000D860186158612E4B002199600221596106
:100020000121F02299502B49196001219960352056
:1000300000F044F80222904214D00621196600F024
:1000400034F8196E01211966002018661A6600F04E
:100050002CF8196E196E196E052000F02FF8012189
:100060000842F9D1002199601B49196000215960AB
:100070001A491B48016001219960EB211966A021F2
:10008000196600F012F800219960164914480160C1
:100090000121996001BC002800D000471248134993
:1000A000086003C880F30888084703B5996A0420EC
:1000B0000142FBD001200142F8D103BD02B5186610
:1000C0001866FFF7F2FF186E186E02BD00000240BE
:1000D000000000180000070000035F00212200005C
:1000E000F4000018222000A00001001008ED00E03C
:1000F00000000000000000000000000074B24E7A12
:1001000000200420F7010010CB010010CD010010E9
:10011000C9010010C9010010C9010010C901001077
:10012000C9010010C9010010C9010010CF01001061
:10013000C9010010C9010010D1010010D301001045
:10014000C1010010C1010010C1010010C101001067
:10015000C1010010C1010010C1010010C101001057
:10016000C1010010C1010010C1010010C101001047
:10017000C1010010C1010010C1010010C101001037
:10018000C1010010C1010010C1010010C101001027
:10019000C1010010C1010010C1010010C101001017
:1001A000C1010010C1010010C1010010C101001007
:1001B000C1010010C1010010C1010010C1010010F7
:1001C000EFF30580103800BE00BE00BE00BE00BECA
:1001D00000BE00BEF2EB8871A8F50610D4F506103B
:1001E0003802001090A31AE71E481F49086006C88D
:1001F00081F3088810471D480068002801D019487D
:10020000F3E70DA40ECC002902D000F012F8F9E7B4
:100210001749184A002000E001C19142FCD116495B
:100220008847164988471649884700BEFDE701C937
:1002300001C29A42FBD37047D4F50610E0000020BB
:10024000F80B0020EC000710000004200000042040
:10025000EC00071000100420001004200000000033
:10026000704700000000000008ED00E0000000D032
:10027000F80B0020AC0803208D400010450300104F
:1002800085400010F8B5C04606480749091A8B108A
:10029000C90FC91810B5491003D0044B002B00D06A
:1002A000984710BDF80B0020F80B0020000000005C
:1002B000054B10B5002B03D00449054800E000BFF2
:1002C000FFF7E2FF10BDC04600000000ECEE00208A
:1002D000C8D5021010B50AF017FF002807D009484A
:1002E00004F062F8FA20800012F034FEFAE70648C3
:1002F000064B43601CF066FF0021080000F0D4F8B4
:10030000F0E7C046C8D5021060400020110300107D
:1003100000B583B0042802D11378602B01D003B05C
:1003200000BD9378022BFAD168461DF013F8684699
:100330001BF068FF024B0100180004F0B9F8EEE76B
:10034000E8D5021000B585B003F0DEFF03AB0193E2
:100350008022022305490093D2000023044812F0B2
:10036000F1FB12F019FC002005B000BD08D6021008
:10037000D5020010174B70B51B680400002B14D178
:10038000154A10780138C0B20300312801D864231F
:100390006420137026F01CFAFA21200089001BF05B
:1003A00083FC20001BF08CFC70BD0C4A0C4D1368C4
:1003B0001E210133136028000A4A03F005FE0A4B90
:1003C0001860280003F0F0FF084B188826F018F991
:1003D000D6E7C046D45400209805002068140020B9
:1003E0006C14002018D602108C140020740803200E
:1003F00010B5042804D11378052B0BD0B72B00D0EF
:1004000010BD0649064B074A1B8808880D2126F0B7
:1004100019F9F5E70022044B1A60F1E7740803208C
:100420008C1400206C140020D4540020F8B506ADC4
:1004300080CD0C00060011002D881A000D2C0FD065
:100440000E2C01D00020F8BD002138001BF082FCEA
:10045000013842425041074B1860074B1E80F1E7BC
:100460002B00064804F024F8290038001BF04EFD4C
:10047000E8E7C046D45400207408032030D60210A8
:1004800010B582B06846048A00200D2901D002B060
:1004900010BD034903480988009424F08BFEF6E759
:1004A0008C1400206C14002010B586B020F0E2FF00
:1004B0002BF04EFC244A2549254826F04BF8254BC5
:1004C00004AC187826F048F906220021200002F03A
:1004D0001BF90023029307330022019300940023A9
:1004E000302130202CF062FA1B49122020F080F9D4
:1004F000012020F0D5F9194C194844601CF062FE27
:10050000200026F053F8FA21164C174B20008900E2
:10051000A3601BF0C9FB20001BF0D2FB134A144C54
:1005200013681E21013313602000124A03F04CFDB2
:10053000114B1860200003F037FF01201FF0F0FF7F
:10054000002006B010BDC0462D040010810400102C
:10055000A82003109805002094200310F103001038
:10056000684000203C4F00207503001068140020F4
:100570006C14002018D602108C140020094A830045
:100580009A1810B514684022544080322240064C1C
:10059000C000A44663441A60044B9C46604441601A
:1005A00010BDC04604C0014004D0014000400140DD
:1005B000074B8000C3181B68C90092000A435A40C9
:1005C0000C231340034A9446604403607047C046BE
:1005D00004C0014004D001408000002905D0064B32
:1005E0009C460223604403607047044B9C460223F0
:1005F00060440360F8E7C04604E0014004F00140B5
:10060000D0231B061B6830B50500584243412F20FC
:100610005B4283430E48EC08844607202840800054
:10062000814020000B4D3C3063448000A4004151C8
:100630001B19002A05D08022920194466344196058
:1006400030BDC0229201944663441960F8E7C04669
:100650003041014000400140D023F0B5C6461B06A2
:1006600098461B680C4F9B001600FA5804000D00BA
:1006700000B5104209D1290014430D203200FC506E
:1006800000F072F980BCB846F0BD01F0D3FA4346E1
:100690001B689B00FA58EEE76C01012010B50400BE
:1006A0000D2000F05BFAD0231B061B6802499B005B
:1006B0005A58A2435A5010BD6C0101200123D02288
:1006C0008340120693629361094A83009A18116865
:1006D0004022514080320A400649C0008C466344A3
:1006E0001A60054B9C460523604443607047C04632
:1006F00004C0014004D00140004001400FB400B5E7
:10070000084883B003F050FE049B002B07D005A9D6
:100710001800019103F07EFC034803F045FE012020
:1007200003F090FC6CD602102CE7021010B50148C3
:10073000FFF7E4FF7CD60210EFF3108072B6034A95
:100740001368002BFCD0BFF35F8F70472C0100D0E3
:10075000BFF35F8F0022024B1A6080F3108870474E
:100760002C0100D070B5EFF3108C72B60D4D2B68D4
:10077000002BFCD0BFF35F8F0724CB08C618C05CEA
:1007800001230C40A3401C000440034207D118433E
:100790003070BFF35F8F2C608CF3108870BD100039
:1007A000FFF7ACFF2C0100D0F8B54746CE4688468F
:1007B00080B5EFF3108C72B61C4D2C68002CFCD069
:1007C000BFF35F8F9A4222D807210126894602E0B3
:1007D0000132934218D34D4637001540AF40D4083C
:1007E0000119045D2742F3D110003C430C70BFF3A4
:1007F0005F8F00220D4B1A608CF3108800280EDBEF
:10080000C0BCB946B046F8BD01204042EFE7BFF397
:100810005F8F00232B608CF31088012040424346F9
:10082000002BEDD00898FFF769FFC0462C0100D0DF
:1008300030B5EFF3108C72B60A4C2368002BFCD055
:10084000BFF35F8F072301220B409A40CD08435D21
:1008500093434355BFF35F8F002323608CF31088CD
:1008600030BDC0462C0100D0044A1078431CDBB2D6
:10087000172B00D9102313707047C046990500202C
:1008800010B5034B01001800024AFFF76BFF10BDC3
:10089000341400208CD602100021044B044ABFF30C
:1008A0005F8F02C39342FAD17047C046000100D067
:1008B000800100D0054B064A1360064A136053605E
:1008C0009360D3601361536193617047808080802F
:1008D00000E400E004E400E01F2318401E3B8340D6
:1008E000002905D0C021044A4900535013607047C5
:1008F000802201498B50FAE700E100E001228240AA
:10090000034B1B6813405A1E9341D8B27047C04630
:1009100000E100E070B50D00EFF3108672B60F4AEB
:100920001368002BFCD0BFF35F8F0D4B10309B681A
:1009300084001B590B4A934203D09D4201D001F021
:1009400079F9074B9B681D51BFF35F8FBFF35F8F32
:100950000022024B1A6086F3108870BD240100D07B
:1009600000ED00E0C1010010F0B557464E46DE46EE
:100970004546E0B585B0060000911700EFF3108BF7
:1009800072B66A4A1368002BFCD0BFF35F8F002554
:10099000674B5D579A46002D00DAA9E06B00654C65
:1009A00001935B199B009846A146C1444B465246B1
:1009B0009B7910361370604BB6009B6899590B1BDE
:1009C0002F2B33D95D4B994200D0ACE0019B4246BE
:1009D0009C465B4B6544AD0063535A4B0232A218F0
:1009E000043B9B1A1B05584A5B0D651913436B802A
:1009F000564B0121AB80FF23AB71009BEF71AB60C5
:100A00004B460B4319004C4B9B689951BFF35F8FCA
:100A1000BFF35F8F0022454B1A608BF3108805B03F
:100A2000F0BCBB46B246A946A046F0BD01200A0074
:100A30008243D3798C46BB4231D8454613004449A2
:100A40001B1B5B415943090D3D4B63533D4B023525
:100A50006519043B5B1B1B053B4D5B0D2B43AA46F5
:100A60004D466B800425AC465546E044131F444474
:100A70001B1B1B055B0D1D434B46997100999D8007
:100A800099604946DF71334B01431360BBE758005F
:100A9000C01880002018C179B9422FD9020006235E
:100AA000D356002BF3DA02932B4B61460393131DAD
:100AB0009A4604235B429C46E14450464B461B1A2F
:100AC0001B055B0D9C46204B95719846634640463E
:100AD00003439380019B5A199200039BA418A3809F
:100AE000029B1C4AA371009B2260E771A3608AE706
:100AF00001F0A0F8002553465D574FE79088029318
:100B00004005131D9A46031561469C464046D44451
:100B1000634604302018181AE0230005400D1B021C
:100B200018430390C5E701F085F84FE7240100D092
:100B3000910803209C05002000ED00E0C101001099
:100B400000A1FFFFCC05002000E0FFFF01BDFFFF7B
:100B5000AAAA00000148804701BD0000F0B5DE46AA
:100B600057464E464546E0B50C0083B0EFF310887B
:100B700072B6634A1368002BFCD0BFF35F8F614BE2
:100B800061499A68030010339F00D55901938D4243
:100B900043D0A54254D05D4EAA1B2F2A3DD85C4BB2
:100BA0009B461B68994601231A009C4682404B468F
:100BB00013401F2299466346024093409A46802282
:100BC0005B4650469850BFF35F8FEFF305839B461B
:100BD000002B37D0019B5B4501D001F02BF801239E
:100BE0002A009A439068844208D176E04B005B1853
:100BF0009B00F3189868844236D01A00062151569B
:100C00000029F3DA844254D04B46002B27D0C0226F
:100C100051463F4B5200995019603A4B9B68DD5149
:100C2000BFF35F8FBFF35F8F0022354B1A6088F3ED
:100C3000108803B0F0BCBB46B246A946A046F0BD42
:100C40000D00EAE72A0063469A4390688442D5D1B2
:100C500006201056130000280ADA0D0031E0802328
:100C600051462B4AD150D8E706201856002821DBE0
:100C700042001118890074188B46A1689960E179C7
:100C8000D971062161569971002924DBA488F11AD3
:100C9000640524155C44091909051E4C490D2143BE
:100CA000998013181C4A9B001178F31899711070E1
:100CB000AAE713005946002914D1FF319171174951
:100CC000918015490A789A71154A9B1B5B415A43DA
:100CD000120D0A7098E71149E2E70620105613003A
:100CE0000028C5DA0F4A1049D21A083A5002400DBE
:100CF000014399800D4952080A43DA8084E7C046CF
:100D0000240100D000ED00E0C10100109C0500208E
:100D100000E100E000E0FFFF9108032001BDFFFFBC
:100D2000AAAA0000D605002000F0FFFF00F8FFFF90
:100D300010B58308040003202040FF24054AC000AA
:100D40009446844081409B0063441A68A2430A434E
:100D50001A6010BD00E400E070B501240443EFF315
:100D60000581EFF3108C72B6214A1368002BFCD07A
:100D7000BFF35F8F1F4B05001F4AED1A6D416A4399
:100D8000120D1E4D8900AE6852B27658A6421CD094
:100D90000621595691421CD012215956914222D017
:100DA0001E215956914220D02A215956032491429E
:100DB00010D0134B19781A708171BFF35F8F002226
:100DC0000B4B1A608CF3108870BDAB680D4C5C50F7
:100DD000EFE700246100091989005B18FF21997170
:100DE00009499980E5E70124F4E70224F2E7C046C7
:100DF000240100D09C050020AAAA000000ED00E01C
:100E000091080320C101001001BDFFFF024B9C4669
:100E1000614489000160704740000034F8B5124C0D
:100E2000124DAC4212D20126002776422368002BD5
:100E30000DD0FFF719FD01002000FFF7E7FF666006
:100E40002772BFF35F8F0C34AC42EFD3F8BDFFF7CE
:100E50000BFD01002000FFF7D9FF6660BFF35F8F35
:100E60000834AC42E2D3F1E7E80B0020F80B002095
:100E7000F0B5DE4657464E464546E0B587B0EFF33F
:100E80000583032201251A40954091008846A94612
:100E9000B34B03925C58B34B1D60B34B04934B466A
:100EA000B24843630823E55E002D37DAA3881BB2FE
:100EB000002B00DBADE0A379002B00D0EEE008238F
:100EC000E05E002820DB430062691B18DB00D318BA
:100ED0009E68DD68731C00D111E1A4480100414403
:100EE000826A0B69B71A9B1A9F4215D30123026AC3
:100EF000039883401A420FD09C4800F041FB8D427A
:100F000002DCCCD18642CAD940BF07B0F0BCBB4698
:100F1000B246A946A046F0BD0E61EDE762696B00DE
:100F200092465B19DB009A4453469E68DF6800F0E6
:100F300027FB8F42BADC00D103E1002F00DAE8E0A2
:100F40005246534652691B699346049A934200D114
:100F5000D9E052460821605E528800045946104389
:100F60009847009001910099019A0B0010001343DB
:100F700000D1CEE013000A00B61A9F41002806DB1C
:100F80007A4800F0FDFA009E019F36184F41534603
:100F90009E60DF6000229A5E002A00DA86E7530036
:100FA00099186069C900411802938B68C9689B460B
:100FB000B94200DD7AE702D1B34200D976E70823CF
:100FC0009C46A444059565462281A446029B2C00BC
:100FD00006E053009918C90041188D68C968AB46EE
:100FE0009B18DB00C318B94206DC00D1B3E01C003B
:100FF0000023E25E002AECDA230064469C46534656
:101000001A806346059D1D80A3881BB2002B00DA61
:1010100051E72269EFF3108172B61368002BFCD000
:10102000BFF35F8F0123A7885B42A3803FB2236990
:10103000BFF35F8F00221A6081F31088002F00DA5F
:1010400039E72300083322009A4666697B00DB19E2
:10105000DB00F318996850468C460824115FDD6860
:10106000002910DB029306E0AB4244D00023E15E8E
:101070002000002906DB4C006418E4003419E36802
:10108000AB42F1DD029B078000201F5E1980002F1C
:10109000DCDA1400A379002B00D110E70023A37140
:1010A00026000823E15E08364B1C00D12CE708001F
:1010B000A246656902E03E004B1C1AD04B005B184B
:1010C000DB00EF180A008C46E95E7B881BB2002B20
:1010D000F1DA01235B42DC17BB60FC60824205D081
:1010E000534631801B893B8053461A8160464B1C16
:1010F000E4D15446E5E6A3686345B7D9C2E76B1C63
:1011000000D0EAE6F8E65B4658461B699847002897
:101110001BD153461B8822692381EFF3108372B6DB
:1011200011680029FCD0BFF35F8F514662880A80A6
:1011300022696580BFF35F8F0021116083F31088FF
:10114000B4E6864200D8F8E6B0E65B461A685B680B
:101150000092019307E7B34500D848E74CE7C04643
:1011600004EF00203C700540710E00100040054067
:10117000074810B50268EFF3108172B61368002BB0
:10118000FCD0BFF35F8F0EF009FF0020002110BDDF
:101190008C02012070B52E4C2569002D04D00A2147
:1011A0002C48FFF733FE70BD2B4E0321300000F0BA
:1011B000DDF9E660FFF758FB284B03229C46D0235D
:1011C00022701B061B6801216370254B6044A360DD
:1011D0000F23800020610220638063694942A1805F
:1011E00019800231198647311D83585218315A52DD
:1011F00075325C39995218320131995218320131E5
:101200009952183201319952083518329D520231E3
:1012100018329952183201319952183201319952CB
:101220001832013199521832013199521832013174
:1012300099520C4B0C49DC6001303562FFF76AFBB8
:1012400001210320FFF748FB084B1D60A7E7C046BC
:10125000E40500208C0201200040054040000034DD
:10126000FFFF100004EF0020710E001038600540F1
:1012700070B501000469EFF3108C72B62068002885
:10128000FCD0BFF35F8F02200D5E4C6968004019EF
:10129000C00024180869002D36DB26884E80BFF375
:1012A0005F8F002606608CF31088E36063880498E3
:1012B000013320615B0405985B0CA26060611A1C1D
:1012C000002B1FD093B22804628018430A69EFF301
:1012D000108C72B61368002BFCD0BFF35F8F8B8825
:1012E00023808D800B69BFF35F8F00221A608CF31F
:1012F00010880B7801329A40CB6808498C466344C9
:101300001A6070BD0122DDE7BFF35F8F0023036029
:101310008CF3108801204042F3E7C0463C200000D7
:1013200010B543890A1493421ADD53009B18426991
:10133000DB00D3180469EFF3108C72B62268002A20
:10134000FCD0BFF35F8F5A88090494B2090C8A421B
:1013500008D00369BFF35F8F00221A608CF31088F6
:10136000002010BD8022120214435C800123026918
:101370008371BFF35F8F002111608CF310880449E3
:1013800002788C469340C268012062441360E8E70B
:101390003C200000F0B54746CE46060080B59624B6
:1013A0006442E5170F00A4197D4183B08D4215D822
:1013B00012D000F0EDF822002B00121A8B41002B06
:1013C00016DC002B40D03000390000F01FF903B0CC
:1013D000C0BCB946B046F0BD8442EAD9002400251D
:1013E00000F0D6F822002B00121A8B41002BE8DD0A
:1013F00000F0CEF822002B00121A8B41002B0ADBE2
:1014000000230193124B2200009312482B00FFF798
:101410002FFF0130D7D0A846A1460F4D0F4C6B6A65
:10142000984504D8AA6A4A45CDD29845CBD12268BE
:10143000EFF3108172B61368002BFCD0BFF35F8FFF
:1014400020000EF079FDEAE7002ABCD0D0E7C046C4
:1014500071110010E4050020004005408C020120BD
:10146000F0B557464E46DE464546E0B506000F004D
:1014700085B0EFF3058399468B46002B12D038498F
:1014800000204B6ABB4206D38A6ADB1B591E8B4184
:10149000B2424041184305B0F0BCBB46B246A94633
:1014A000A046F0BD2F4B9A46DB68984653461B7802
:1014B0004046039300F064F84246039B0400043363
:1014C0009B009B580D001B1A39003000001BA941DE
:1014D000894510DC0DD020BF214A0020536A5B45AE
:1014E000D9D3926ADB1B591E8B41B242404118434B
:1014F000D1E78342EFD900F04BF832003B00121ADB
:101500008B41002B1ADB00230193174B3200009311
:1015100050463B00FFF7ACFE011E0FDD104B5A6A30
:101520005A451BD39B6AB34216D35046FFF7F8FEC9
:101530000B4A0020536A5B45ADD3D2E7084A00202E
:10154000536A5B45A7D30020926ADB1BB24240413D
:101550005A1E934118439EE75A45E6D120BFE4E75F
:1015600000400540E40500207111001010B5024A4A
:101570000248FFF7F7F810BDACD60210381400206F
:101580000300416A0A00986A596A8A42FAD1704790
:10159000034B596A0A00986A596A9142FAD1704716
:1015A0000040054070B504000D00174A536A190049
:1015B000966A536A8B42FAD13000190024184D41C3
:1015C000AB4216D813D0104B2A005B6A9D4203D958
:1015D0000D494B6A9342FCD3934207D10A4A02E079
:1015E000516A994202D1916AA142F9D370BDA642D3
:1015F000E9D9054B5B6A1C005A1CEFD0012201247B
:101600006442E5175242E3E700400540064A536A48
:101610009942FCD807D1044B02E05A6A914202D1A8
:101620009A6A9042F9D8704700400540F8B5040026
:1016300006200D0000F078F9002844D0374B3849D7
:10164000E3185A1E93418022120494465B429B0D7C
:10165000344A9B0563441360334A136018000A68D8
:101660009043FBD12D4B314AE31859424B41802125
:101670005B0049000620995200F056F92900C0008D
:1016800000F044FC0130C3091ED1402701226262F0
:10169000A362266BF30722D4E36A254B0620E518E4
:1016A00000232B60266300F03FF93900800000F032
:1016B0002DFC7023E26A5A400E3313402B601D4B01
:1016C00023630323A364F8BD1B4A93421ED900235E
:1016D0001A4A1B4F6262A362266BF307DCD5194BD3
:1016E000144AE3181A60656AA36A0620AD01ED1872
:1016F00000F01AF9144900F009FCAD0201002800BD
:1017000000F004FC0021FFF74DFFC5E74006800E06
:101710009F011A003F180300B9E7C0460080FCBFD4
:1017200008C0004000E0004000F0004090060120AA
:101730002C10000001030000FEFF0000FFFF00006E
:10174000C0FF3F00303000004E0E0000F8B5DE460E
:101750004E4657464546E0B58B4605000A991800A7
:10176000160000F0D3FB0A9B6C001F02324B641979
:101770009C46A4006444636881469F4200D9676028
:101780002B1FDBB29846012B30D9C02380229B014E
:10179000E31812011A60294BAD0059599A460029E5
:1017A0001BD17301E026226853401E40802342462D
:1017B0005B01E3181E60012A30D9802380229B013F
:1017C000E31812011A6053464A4667605A51F0BC4A
:1017D000BB46B246A946A046F8BD586900F096FB44
:1017E000013043001B18033BFDD2DAE75B46012BB7
:1017F000CBD1C02303229B01E3181A60023AA368ED
:101800001A42FCD07301E0262268AD0053401E400E
:1018100080230A4A5B019246E3181E605A462168FB
:10182000514003220A401A6001225B469A40A36895
:101830001A42FCD0C1E7C04600800040401400209E
:10184000F0B546464F46D646C0B51F00344B44005F
:101850009C462418A4006444636888461600FF2B45
:1018600002D880235B006360031FDBB29A46012B22
:1018700030D9C02380229B01E31812011A60294B42
:1018800085005959994600291BD17301E026226829
:1018900053401E40802352465B01E3181E60012A1C
:1018A00030D9802380229B01E31812011A60802323
:1018B0005B0063604B465F51E0BCBA46B146A84648
:1018C000F0BD586900F022FB013043001B18033BB8
:1018D000FDD2DAE74346012BCBD1C02303229B0183
:1018E000E3181A60023AA3681A42FCD07301E0269A
:1018F0002268850053401E4080230A4A5B019146BE
:10190000E3181E6042462168514003220A401A60D3
:10191000012342469340A2681342FCD0C1E7C0466F
:101920000080004040140020014B8000C0587047E8
:1019300040140020F8B5040021481E0017000D00D7
:1019400000F0E4FA0100380000F0E0FA069B3604EB
:101950001B031E432368002B20DB1A4B1A49E31894
:101960005A1E93418022920194465B421B0B174AF8
:101970001B0363441360164A13601F000A689743F1
:10198000FBD1144B2560E2182123A060136023686B
:10199000002BFCDA0823E6601360F8BD3F232268C1
:1019A0001340AB42D9D1A3681B051B0D8342D4D190
:1019B000EE22E368D2021340B342CED1EDE7C04637
:1019C000001BB7000040FDBF08C0004000E0004021
:1019D00000F00040043000008023024A9B000B43CB
:1019E000D362704700800540002310B50100988A3B
:1019F0001B8B984710BDC046162310B501001888F0
:101A000002331B88984710BDF8B54746CE4680B5CF
:101A10000F1E18D014239946043304000025012614
:101A200098464B461888434621681B88984701C44E
:101A3000431E984101350640AF42F2D13000C0BC90
:101A4000B946B046F8BD0126F8E7C046002370B598
:101A500004000D00988A03491B8B98472900030056
:101A6000200098475542000001207047D021F0B572
:101A7000C64609060A681D4B9200804600B5D35839
:101A800083F3108803230C68194D2B5540BFFFF7D3
:101A90007FFDFA2206000F0000234046002192003D
:101AA00000F0AEFD80197941002902DA01201149C8
:101AB00040422B5D0E00042B08D00F4A536A9E4211
:101AC0000ED8976A874201D29E4209D0285D043819
:101AD000431E984101234042984380BCB846F0BD64
:101AE00020BF2B5D042BE9D1F0E7C046B85200209F
:101AF000E0540020FFFFFF7F00400540F0B5C646E0
:101B0000D02300B51B061C6886B005AB22000293EB
:101B100001235A4093408022019300238046009382
:101B2000264923002648D20011F022F801283CD192
:101B3000244D285540BF1F2105980FF0BBFDFFF72E
:101B400027FDFA2206000F000023404600219200E4
:101B500000F056FD80197941002922DB2B5D0E0033
:101B6000022B08D0184A536A9E4215D8976A8742BA
:101B700001D29E4210D02B5D022B19D1D0231B061F
:101B80001A68EFF3108172B60020104B9200D1500A
:101B900006B080BCB846F0BD20BF2B5D022BE2D161
:101BA000E9E701200A494042D8E709204042EFE72F
:101BB000032302202B554042EAE7C046D0D602104C
:101BC000DD010020E054002000400540B852002014
:101BD000FFFFFF7F00487047FC050020F8B50600B6
:101BE0000F001500FFF7F6FF041E0AD04368280017
:101BF0009847002804D13800B0472800A3689847C8
:101C0000F8BD04204042FBE7AA23064A1B011360EB
:101C10008D235B00D3600449044B19605368002B8B
:101C2000FCDA70470040024000B0FA000060024059
:101C30007047C04610B50148FEF760FDE0D60210BF
:101C400070B5074D074EB54209D20024013E761B00
:101C5000B60808CD984723000134B342F9D170BDCE
:101C600080D50210BCD5021070B5074D074EB542A5
:101C700009D20024013E761BB60808CD9847230000
:101C80000134B342F9D170BDB4D50210BCD50210F5
:101C9000054B064A06491A60064A074B1A601000AF
:101CA0000B689843FBD1704700E00040BFCDFBFEBE
:101CB00008C00040FE7F3C0000F00040044BDB6C9D
:101CC000002B03D18022034BD2021A607047C0461A
:101CD000000011504C201150044A054B1A60054A6F
:101CE0001368DB018033FBD17047C046FFFFFF0163
:101CF00000F0004008C000404022034B9A675A673A
:101D00001A67DA667047C04600F0014010B5FEF76A
:101D1000C3FD10BDF8B52749274C284D641AA610FD
:101D20003200302E00D930222800920000F0F2FC60
:101D3000BC2C3BD830202F232C196407204A801B51
:101D4000E40F9B1B052B16D93700002C02D0B300E3
:101D5000771CEA50001B33199B004108EB18C9009F
:101D6000C9181A605A6008339942FAD10123034214
:101D70001CD09843C619B300EA50731C2F2E15D0FF
:101D80009B00EA50B31C2E2E10D09B00EA50F31C8F
:101D90002D2E0BD09B00EA50331D2C2E06D09B001D
:101DA000EA50731D2B2E01D09B00EA50054B9D601D
:101DB000F8BDC04600010010C00100100000002066
:101DC000C101001000ED00E0002310B5294C82B0E5
:101DD000A367FFF719FF0122274B1A60636C012BE1
:101DE000FCD10322254B1A60224A936B012BFCD1B4
:101DF000013300930121224A22480433FFF79AFD60
:101E0000052301210093204A2048FFF793FD00227B
:101E1000022104201E4BFFF713FD002201210520A3
:101E20001C4BFFF70DFD0022002107201A4BFFF786
:101E300007FD002200210820174BFFF701FD80233A
:101E4000DB000093002200210920134BFFF77EFCEA
:101E50000022104B00210620FFF7F2FC0420FFF7C0
:101E600063FD0E4900F052F801000020FFF7B4FDB9
:101E700002B010BD008000403CB0004030B00040D7
:101E8000002F685900800240008C864700C0024045
:101E9000001BB70040597307006CDC0240420F0082
:101EA00001480421014B184710060020091A0010B0
:101EB000014B9B681847000010060020124A936FE0
:101EC0009B0815D29066D166002905D0FFE7FFE791
:101ED000FFE7516F106F704704B580210906C217E4
:101EE0005140002800D0C8432BF02AFB002104BD3C
:101EF000F0B5146E556E576F166FFFF7E3FF14665B
:101F0000556657671667F0BD000000D0114A936F01
:101F10009B0813D210665166002905D0FFE7FFE742
:101F2000FFE7516F106F704704B5002801D0002003
:101F3000C0432BF005FB002104BDC046F0B5146E74
:101F4000556E576F166FFFF7E5FF146655665767B6
:101F50001667F0BD000000D094464A4A926F92087E
:101F6000624601D228E0C046F0B5464E346E756E2A
:101F7000776F366F00F020F89446424A1466556633
:101F8000576716676246F0BD94463E4A926F9208C4
:101F9000624601D254E0C046F0B53A4E346E756EDA
:101FA000776F366F00F04CF89446364A14665566E3
:101FB000576716676246F0BD002B24DB11D000295D
:101FC0003EDA00B5C943404200D1013100F038F893
:101FD000C943404200D10131DB43524200D10133B9
:101FE00000BD002AEBD1002801D1002905D0002036
:101FF000C90FC90701D1C043410800B52BF090FAC1
:102000000022002300BD00B500290ADBDB43524259
:1020100000D1013300F014F8C943404200D101312E
:1020200000BDC943404200D10131DB43524200D1DF
:10203000013300F005F8DB43524200D1013300BD0B
:10204000002923D1002B18D1002A0CD0BC460D4FFB
:1020500038667A6600210023FFE7FFE7FFE77A6F23
:10206000386F67467047002801D00748010000B567
:102070002BF056FA0022002300BD02000B000020C6
:1020800000217047000000D0FFFFFFFF002B00D0B1
:10209000BFE0130C28D1002AE7D080B4114F396675
:1020A0007A66FFE7FFE730B4040C7B6F396F1B04DF
:1020B00023433B667A66FFE7FFE7FFE7C04684B24B
:1020C0007B6F3D6F1B0423433B667A66FFE7FFE7A8
:1020D000C04600232C042D0C7A6F386F001969411B
:1020E000B0BC7047000000D0F0B594460025140E37
:1020F00001D112020835140F01D112010435940FD9
:1021000001D192000235D40F01D152000135D40B18
:102110000134254F7C66254C3C660E0C93B2FFE7DC
:10212000FFE7FFE73C6F6643360C7703BE46734319
:10213000DF0B5B04C01AB941130C7343DB18C91AD7
:10214000CE086643360CB64493B273431F0F1B018F
:10215000C01AB941130C73431F0B1B05C01AB941B8
:10216000860D8F023E436643360C092D24DB520A4E
:102170007243801A7703460A6643360C16235B1BAC
:10218000DE40DF40BF1964466643821B704604355B
:1021900006330100D940A840C01900D30131A24242
:1021A00006D20023F0BD0000000000D0FFFFFFFFBB
:1021B000121B0130F3D3F1E709277F1BFE40644671
:1021C000A2B27243801A00D20139220C7243130C5E
:1021D0001204821A99410B0070460435133701002E
:1021E000F940A840801900D30131002B02D1A2424E
:1021F0000AD2F0BD013000D30131121BFAD2013BEB
:10220000F8D1A24200D2F0BD013000D30131121B3F
:10221000F7E7F0B51C0C00D080E00CB400251C0AD8
:1022200004D11B02160E3343120208351C0B04D1D5
:102230001B01160F3343120104359C0B04D19B0084
:10224000960F334392000235DC0B02D192185B41AA
:1022500001351C00971864410134464F7C66464C9A
:102260003C660E0CFFE7FFE7FFE7C0463C6F6643A6
:10227000360C7703BE4697B27743C01B00D20139B4
:10228000C01B00D201399FB27743C91BC91B170C71
:1022900077437E04FF0B801BB941CE086643360CA2
:1022A0000C2D33DBB644120B1F053A431B0B97B2C0
:1022B0007743C01B00D201399FB27743C91B170C6B
:1022C00077433E043F0C801BB941860D8F023E438D
:1022D000664329277F1BFE400C3D7746AF40BF1960
:1022E00030BCA2B2ABB272437343801A9941220C44
:1022F0007243130C1204801A994102000B0001373B
:10230000001BA941F9D2781E0021F0BD0C277F1BCC
:10231000FE4077467F0BAF40FF19E0E700245D1CCD
:1023200007D0144F7D663966FFE7FFE7FFE7FFE759
:102330003C6F95B29EB265436643401BB141150C9C
:102340001E0C6543664336042F0C3E432D04401B90
:10235000B141994204D202000B0020000021F0BDDF
:1023600001D19042F7D3801A994101349942F2D3B6
:10237000F6E70000000000D0FFFFFFFF48404140AB
:10238000484018B4134B5B68019308BD18B4114B57
:102390001B68019308BD94460F4A926F920805D2BC
:1023A000624618B40B4BDB68019308BD0A4AF0B5CE
:1023B000146E556E576F166F6246FFF7F2FF064AAE
:1023C0001466556657671667F0BD18B4014B9B68D5
:1023D000019308BD000E0020000000D0FFB5504062
:1023E0004240504059404B40594000E0FFB5154F26
:1023F0004C00640D03D0BC4204D10C0314D800205F
:10240000090D09055C00640D03D0BC4204D11C0316
:102410000AD800221B0D1B0501264B4009D44B4056
:1024200003D58B4200D18242FFBD9942FCD190423C
:10243000FFBD0B43DB1803431343F5D0C9434918D1
:10244000FFBD0000FF07000000B5FFF7CFFF804190
:1024500000BDC04600B5FFF7C9FF01D9002000BD8F
:10246000012000BD00B5FFF7B9FF01D9002000BD74
:10247000012000BD00B5FFF7B1FF804100BD012084
:1024800040054A00121804D85A00121801D800203A
:1024900070470120704700000021002805D17047D7
:1024A000C1174840401AFAD0C90713B5064B1B683C
:1024B00098470CBC441CA2401005120B0349091B91
:1024C00009051943114310BD880101201F040000B4
:1024D00010B54C00620D8023D218DB00D21A5B05C8
:1024E0007E2A10DD9E3A13DACC17090349081943F6
:1024F0005242D140640001341532202A05DAD0401E
:102500000843604310BD002010BD0846604310BD65
:10251000C80FC018013810BD18B4024B5B6A019394
:1025200008BD0000000E002010B50148FEF7E6F8D7
:10253000ECD60210132370B51D78012D19D014DDCF
:102540001D48FFF759FA06001C48FFF755FA1C4CC6
:1025500080223100200000F0DDF8022D06D019485D
:10256000FFF742FA184B186070BD154C174BA36467
:10257000F5E7174B124C23606360A360E3602361AF
:102580006361A361E36123626362A362E362236325
:102590006363A363E36323646364A364E364236505
:1025A0006365A365E36523666366A366E3662367E5
:1025B0006367A367E367D9E753440000534600000D
:1025C000000E00204C33000088010120D5250010AA
:1025D0002925001007B5604601880A0A0230DF2A63
:1025E000FAD1C9B2820804D302884088000410439B
:1025F00000E00068014A5050039007BD000E002023
:1026000051434343C9188C46110C83B24B4310B459
:10261000040C614392B280B2504362431C041B0C11
:10262000001910BC59411304120CC01851416144E7
:102630007047000010B50148FEF760F86C07031002
:10264000132310B510481C78FFF7D6F90100012CB0
:102650000AD003DD80220D4800F05CF80C48FFF73B
:10266000C3F90C4B186010BD084C5422200000F038
:1026700051F82200084980322368002B00D12160E4
:1026800004349442F8D1E9E7534600008C0101205C
:102690004C330000880101203526001070B504007D
:1026A0000A4E30002AF064FF20002AF0B9F9050034
:1026B00030002AF02DFF002D05D0054B2C199C422F
:1026C00001D8280070BD0348FEF718F8E80B002079
:1026D0000000042004D7021070B50400054D280046
:1026E0002AF046FF20002AF0A5F928002AF010FF62
:1026F00070BDC046E80B002001480421014B18477B
:1027000020060020091A0010014B1B681847000022
:1027100020060020014B5B681847000020060020BF
:102720009A4200D2885470477047C046F8B5574661
:10273000DE464E464546E0B599460A9B07009A4656
:102740000D9B884693460B9C9B073BD10C9B9C4260
:102750003DD21E1B0B9415000C005E442A004B4614
:10276000013521002020B847B542F7D1A0460B9C87
:10277000002C20D0454636195346321B013C185DCB
:1027800029004B46B847002CF6D12B00350098465F
:102790000D9B9B070FD55B46EC1A0C9BA3420AD9F5
:1027A000464698462A004B46310020200134B8475F
:1027B00001354445F6D32800F0BCBB46B246A946D5
:1027C000A046F8BD16001500002CD3D1E0E7160096
:1027D0001500002CCED1EEE7F0B54546DE46574653
:1027E0004E46E0B585B09C4610AB1B78149F9346CF
:1027F00098460F9C129E139DBB074CD4002D42D1CE
:10280000B44248D201233B4099460E9B013B9A4675
:10281000302304E0524601341355A64201D9202C3E
:10282000F8D14B46002B00D183E00E9B013B99462B
:102830003023A54205D82EE04A4601341355AC4258
:1028400029D0202CF8D1FB060CD57B0554D4A64208
:1028500063D0A54261D0119B102B50D0022B57D0D2
:10286000202C32D1202301930E9B5A4600930397CC
:1028700063460295FFF75AFF05B0F0BCBB46B2466F
:10288000A946A046F0BD01233B40994601233B42A7
:102890002AD1B442B9D3FB061CD57B05DBD4002C6E
:1028A000D5D1119B102B5BD0119B022B6BD0302309
:1028B00001240E9A13704346002B10D17B073ED59E
:1028C0002B260E9A631C1655CDE7230001343026C3
:1028D0000E9AD654202CC5D04346002BEED02D2680
:1028E0000E9A631C1655BEE74346002B2FD0013DC0
:1028F000B44200D289E798E7119B102BB2D1BB06F6
:1029000037D5202CAED058230E9A13550134A7E7A3
:10291000202CA7D02300013407E0631E012CC0D077
:10292000119A102A31D0022AD1D162260E9AD65499
:1029300096E7FB06CED57B0500D488E78BE723001E
:102940003E0790D520260E9A013316558BE70C23AF
:102950003B405A1E9341ED1AB44200D255E764E75A
:10296000BB060ED478230E9A0224137030235370C2
:10297000A1E7202C00D175E778230E9A1355013476
:102980006EE75823EFE76033EDE70E9AA61E9146F7
:102990004E44BA0602D55822327098E77822327037
:1029A00095E7C04610B5002800D110BD01F0B2FC7B
:1029B000FBE7C0460B0010B5002802D049681B6831
:1029C000984710BDF0B55746DE464E464546E0B541
:1029D00095B083460F00924698461E9A1F9B1000A2
:1029E0001900209EFFF74BFD002800D0EAE11E9859
:1029F0001F990122C54B5242FFF726FD002800D047
:102A000014E11E981F990122C14B5242FFF732FD7B
:102A1000002800D0E9E01E981F990022BD4BFFF767
:102A200029FD002800D0C8E01E981F990022BA4B4B
:102A3000FFF70AFD002800D0BFE01E981F99002272
:102A40000023FFF701FD002800D0E4E000230B93F2
:102A5000229B5B0500D406260024302307E01721C3
:102A600006AA013452181355013E202C01D0092E1C
:102A7000F5D81E981F99FFF72BFDA84BF2009B1865
:102A80001A685B68050008920993FFF709FD0200C8
:102A90000B001E981F99FFF774FC089A099BFFF71B
:102AA00094FC06900791FFF737FD8146FFF7F4FC91
:102AB00002000B0006980799FFF763FC0022984B71
:102AC00006900791FFF7D6FC002800D10DE1012305
:102AD0009C46E1444846FFF7DFFC02000B000898E3
:102AE0000999FFF7B7FC002802D000239946013569
:102AF000002E00D1D9E006954D46B94614E006AA4D
:102B0000944617230A216344280001341F19FFF754
:102B1000FDF93031397028000A21013EFFF7F6F93E
:102B2000092D00D817E10500202CE8D14F46069D5D
:102B300020240CAE06AA17239446634499465B46AC
:102B4000B34606930FE04B4628000A210134E618ED
:102B5000FFF7B4F93031280031700A21FFF7AEF9E0
:102B6000051E00D1E4E0202CEDD1069B5E469B467D
:102B70000323229A1340012B18D1219B002B15D03F
:102B80000B9B002B00D1FDE0219B013B2193202BCF
:102B90000CD93023219A07E0172006A9013409181F
:102BA0000B55944200D3CCE0202CF5D1229B01940C
:102BB0000393219B0096029322E0229B52460493AA
:102BC000219B3900039358461E9B1F9C029600933D
:102BD0000194434600F04AF90400200015B0F0BC0F
:102BE000BB46B246A946A046F0BD229B5B070FD468
:102BF00003224C4B22990192039121990093029157
:102C00004346524639005846FFF790FD0400E4E77A
:102C10000422454BEEE71E9A1F9B00200021FFF780
:102C2000B0FB01231E901F910B9311E7229B54468A
:102C30009B0711D1219B042B0ED9219B55469C4605
:102C40005E46043C64442A00434601353900202096
:102C5000B047A542F7D1B346344D26002B1F994605
:102C60005B46A3461C003200E87843463900013D2C
:102C7000A04701364D45F6D123005C469B46229B7A
:102C800004349B07A9D55346219AE31A9A42A4D942
:102C90005E4615002200434639002020B0475346C7
:102CA0000134E31A9D42F5D897E72800FFF7F8FBB7
:102CB00002000B001E981F99FFF763FB0022184BC0
:102CC00006900791FFF7C0FB0CAE002800D031E75B
:102CD000069807990022124BFFF7CCFB002800D082
:102CE00028E7012301359D4324E700220698079930
:102CF0000B4BFFF7A9FB002800D0F9E64B46002B51
:102D00005CD101239C46E144F2E6C046FFFFEFFFA1
:102D1000FFFFEF7F65CDCD4165CDCDC19023031081
:102D20000000E03F5CD7021054D7021064D70210B5
:102D3000069B5E469B460323229A1340012B00D13B
:102D400081E0202C00D131E70B9B002B27D02D23D5
:102D5000335501342AE74F46069D202C00D1E7E683
:102D60003022331907E0172006A9013409180A5543
:102D7000202C00D1DCE6A342F5D12E220CAE01348A
:102D8000F254D7E60C23229A134257D0219B013BE1
:102D90002193A34200D9FCE6202C00D106E7229B18
:102DA0005B0703D52B2333550134FFE6229B1B071A
:102DB00000D4FBE6202333550134F7E6DB0700D4CB
:102DC00096E69EE7229B55469B0711D1219B032B3C
:102DD0000ED9219B54469C465E46033D6544220025
:102DE0004346013439002020B047AC42F7D1B34606
:102DF000B9465F461C4EEC1C2A00B0784346494653
:102E00000135B847013EAC42F6D1229BBB464F4646
:102E10009B0700D4E1E65346219AE31A9A4200D870
:102E2000DBE65E4615002200434639002020B0470D
:102E300053460134E31AAB42F5D3CEE6219BA342BD
:102E400000D9A6E6B2E6219B002B00D179E70B9BC7
:102E5000002B97D0219B013B21939C4200D298E606
:102E6000202C00D073E7A1E660D70210F0B5DE4653
:102E700057464E464546E0B599B081468B46924648
:102E80009846229A239B10001900FFF7F8FA0028B1
:102E900000D0CAE0229823990122824B5242FFF7C8
:102EA000E9FA002800D0C0E02298239901227E4B45
:102EB0005242FFF7C9FA002800D0B6E022982399C1
:102EC00000220023FFF7C0FA002800D0C9E1229BAE
:102ED000239C08930994089809998023269ADB007B
:102EE0001A400D928022269C1201144022000B945D
:102EF000269C07000E001C4200D0ADE00B000343EF
:102F000000D0D5E0002A00D00AE222000633249344
:102F1000022313400C930223134200D002E2259BAC
:102F2000042B00D20FE2043B0B93002304250A93E9
:102F30000022229823990023FFF786FA002800D068
:102F400003E25A4B269A134004930B9B0393249B52
:102F50000293089B099C00930194594643465246AC
:102F60004846FFF72FFD02002020269B1F27034025
:102F700059424B415B421840531C08935946434603
:102F80004530C8470A9AD317D4185C40D30F0A9328
:102F90006B1E0B9308AB9C460025674401E0202D77
:102FA0000FD020000A21FEF7B1FF01357E19303124
:102FB000317020000A21FEF7A9FF26000400092E27
:102FC000EDD8052306930B9B5946059300230493E4
:102FD0000A3303930A9B4846029310AB0093089A66
:102FE00043460195FFF7F8FB0C9B002B2DD0534671
:102FF000C41A259BA34228D94D465F4681461E0030
:10300000534639001A19202043460134A847A642E6
:10301000F6D8534648462599C21A013200239142F8
:1030200000D386E1013018180FE0269B0493259BFE
:103030000393249B0293229B239C00930194434679
:10304000524659464846FFF7BDFC19B0F0BCBB4696
:10305000B246A946A046F0BD01432BD10B9B2200EE
:10306000002B00D154E700230A93249B0A9A0024E2
:10307000934200DD85E12298239900220023FFF787
:10308000E3F9002800D035E1269B084A02941A4053
:103090008023DB0013430493259B0393089B099C27
:1030A000CBE7C046FFFFEF7FFFFFEFFFFFF7FFFF1C
:1030B00006232493B44B70009C46400D6044FFF7F8
:1030C000EFF9B24AB24BFFF780F9B24AB24BFFF7C1
:1030D0005DF93603B14B360B334304000D00380065
:1030E00019000022AE4BFFF74CF9AE4AAE4BFFF78A
:1030F0006CF902000B0020002900FFF747F9FFF7E9
:10310000E7F90A90FFF7CCF9A84AA94B04000D0093
:10311000FFF75BF90022A74BFFF738F9FFF7D8F963
:10312000A54A0600A54B20002900FFF74EF9040030
:1031300030000D000C96FFF7B3F9A14AA14BFFF741
:1031400044F902000B0020002900FFF71AF90200E1
:103150000B0006000F00FFF738F9320004000D00E5
:103160003B0030003900FFF711F900220E900F915B
:10317000954B20002900FFF70EF90022934BFFF733
:1031800005F902000B0020002900FFF704F90022D6
:103190008F4BFFF7FBF802000B0020002900FFF720
:1031A000FAF80D008021040032003B000020C90520
:1031B000FFF7E7F802000B0020002900FFF7E6F810
:1031C00002000B000E980F99FFF7E5F80022734BF1
:1031D000FFF7DCF87F4B0C9C9C46644400222305DF
:1031E000FFF7F3F806000F0002000B00089809999A
:1031F000FFF72AF900280AD00A9B3000013B39006A
:103200000A930022714BFFF7C6F806000F000A9AD6
:10321000330063323900C62A12D8022226980425C8
:1032200010400B9A0C90002A25D1259B042B05D920
:10323000002800D0A1E0259B043B0B93042541E02E
:103240000222269810400B9A0C90002A12D1259B3E
:10325000052B76D9002872D1259B0525053B0B93BC
:1032600034E0802212069446229B0893239B6344F9
:10327000099330E605250B4300D1F6E60898099935
:10328000554A564BFFF7EEF8002808D008980999E0
:103290000022534BFFF7D8F8002800D0E5E6249B26
:1032A000002B1CD00D9B002B19D0249B013B249399
:1032B000259BAB4204D90C9B002B5AD002230C93C4
:1032C00000230B930A9B002B00D131E60898099943
:1032D00032003B00FFF75FF80890099128E6259B34
:1032E000AB42EDD90C9B002B43D000230B93023350
:1032F0000C93E7E78020269B3A4A00061A40802379
:1033000084460294089C099D2900DB001343049322
:10331000259B6144220003930B00009201938EE6EB
:103320000524A8E600230B930A93023304250C938B
:10333000FEE553468C46013B63441B1A72E60223AA
:103340000C930525C2E70423EDE58020089E099F24
:10335000000639008446269A224B614413400493A8
:103360000B9B32000393249B02930B00009201936A
:10337000F3E5259B5B1B0B93A4E7022304250C9329
:10338000A0E79C1A013C76E601FCFFFFFB799F5009
:103390001344D33FB3C8608B288AC63F0000F03F78
:1033A0000000F83F61436F63A787D23F71A379099B
:1033B0004F930A400000E03F1655B5BBB16B024089
:1033C000EF39FAFE422EE63F00002C400000244078
:1033D00000001840FF0300002D431CEBE2361A3FAB
:1033E00080842E41FFF7FFFFF0B5DE4657464E467C
:1033F0004546E0B5A5B01E002E9B92460C93CD4AE3
:10340000CD4B80468B461A60002900D1EAE10023AB
:1034100030789946002800D1ECE1C84B4C460B931C
:10342000C74B454657460E930AE0631C9846220058
:103430003B005946A84744463078002800D187E031
:1034400001362528F1D108239A46043B9946023BD0
:103450009846013B00229C460D943078711C030075
:10346000203BDBB2102B03D80B9C9B00E3589F46FC
:103470000300303B89460D9C092B3AD9002398461E
:103480002A2800D1C1E000239A462E284BD0030001
:10349000683BDBB2122B1ED80E999B00CB589F467F
:1034A00063460E001A43D8E743460E001A43D4E79A
:1034B0004B460E001A43D0E710230E001A43CCE708
:1034C00053460E001A43C8E780235B001A43FF3BB4
:1034D0009C467078E1444E4667284FD82428A4D9EA
:1034E0000300253BDBB2422B9FD896499B00CB586B
:1034F0009F46002394461E0000E00131B3009B1953
:103500005B001E180878303E0300303B092BF4D9CD
:103510000123624689469C460023B0469A460E0027
:10352000E1442E28B3D13021802049428C46C0008E
:10353000024370784B4684446146092900D86CE107
:103540002A2800D17AE101239C464E46E1449EE7B9
:10355000A146A846BA46CA4503D801235B42534454
:10356000994653464A4659460020C047200025B098
:10357000F0BCBB46B246A946A046F0BD0300693B7D
:10358000DBB20D930F2B00D94FE7012199408C46F8
:103590006D49894661464B4619400F91634649463D
:1035A0000B4200D028E10D9B0A2B3AD0072B00D00C
:1035B0003BE70C9B190008C98846002B00D14BE162
:1035C00021200243914614A98C461F220F216244F8
:1035D0008C4651460D950C91A24615000F9902E0BC
:1035E00020290CD0130064461C4020003730092CE1
:1035F00000D80738013168541A090F2BF0D80C9BFA
:1036000054460D9D9A460F9133E10C9B02CB8846A0
:10361000002947DB0C9301239C4670784E46E14419
:1036200031E70C9B02CB14935346002B00D138E1B9
:103630009C4608780B000C908C44002801D100F0C7
:1036400098FC89466146944603E05A780133002A83
:1036500001D08B42F9D1494662465B1A0C900F9318
:10366000530500D520E10223180010400D901342AD
:1036700000D1CBE30D930B1BB1469A465E460C98E6
:1036800022003B003100A84753460134185D002852
:10369000F6D1B3464E460D9B002B00D0C7E1149BDC
:1036A0000C93C9E60C9301239C46283849420243F7
:1036B000884670784E46E144E5E670786C2800D183
:1036C0007FE180235B001A43FF3B9C46E14402E715
:1036D00080239B001A4301239C467078E144FAE65C
:1036E0007078682800D173E180231A437F3B9C46A1
:1036F000E144F0E6672800D103E1472800D15AE110
:10370000452800D15AE10492072142460C9B0392BE
:10371000073352468B43190002920CC928000092CD
:1037200001930C9122003B005946FFF79FFB0400D8
:1037300082E6C046E9330010C8540020F02103108F
:10374000342203108022031041900000462800D14B
:10375000DBE00492072142460C9B0392073352465A
:103760008B43190002920CC92800009201930C911E
:1037700022003B005946FFF725F904005CE6631C74
:10378000984622003B0059462520A847444653E668
:103790000C9B04330D93631C9946920700D422E1DD
:1037A0000C9B2200187859463B00A84743464444E6
:1037B000012B00D885E23300B8462E005F46250075
:1037C0004C46994622004346013439002020B04738
:1037D000AC42F7D12C00BB46350047464E460D9B08
:1037E0000C9329E6DB4B3078984600239946002855
:1037F00000D012E60024AEE66F2800D188E000D8A1
:103800000BE31023782800D1CFE09A430A239C468B
:1038100000230F930A330D9380E05646B1008919B7
:10382000490001330E181878303E0100303909295B
:10383000F4D9B2461E000133994628E60C9B0236A5
:1038400002CB8A46C9435046C917084082460C93AA
:103850003078731C99461AE61023100098431133F0
:103860001843814680201300C0000340024200D16B
:10387000A9E64B4606930823059353460493102369
:103880000393002302930F9B220001931CAB009330
:1038900059463B002800FEF79FFF434604000C9367
:1038A000CAE501235B42C3E60F9B534501D953464A
:1038B0000F930223180010400D90134200D1B7E17E
:1038C0000D93D1460B1B9A463300A1442E002200D3
:1038D0004D460C98B9465F469B4608E04B4639007A
:1038E000541CB0475346185D002877D022009542FB
:1038F000F4D15B46BB464F46A94635004C461E00F8
:10390000C9E680231B011A43FDE620231A4320E762
:1039100008239C4600230F9308330D938023110046
:10392000DB0019401A4200D116E10D239A43100022
:10393000802302009B001A401492184200D0C2E17A
:10394000802302005B001A4091460C9A04320F92C9
:10395000184200D0B7E2430600D59FE1030600D429
:1039600019E30C9B1B880993002B00D0FCE110335A
:103970009843002900D1F7E1002399464346059377
:10398000534604930D9B069003930023D2E05828DE
:1039900008D0622867D102239C4600230F9302338C
:1039A0000D93BBE720231A43103B9C4600230F9343
:1039B00010330D93B2E780231B011A4320231A43CF
:1039C000A1E6C0239B001A43F31C9946B07882E518
:1039D000C0231A43F31C9946B0787CE535005E4657
:1039E000BB464F4657E64346012B00D863E1631EB2
:1039F00043449A463300B9462E005F4655469B46DF
:103A0000A24622004B46013439002020B047AC4288
:103A1000F7D135005E46BB464F46A14654460C9B47
:103A20004A46187859463B004444A847D7E6A14681
:103A30000F9B984500D832E64444E41A3300B84658
:103A40002E005F4625004C4699462200434601342D
:103A500039002020B047AC42F7D12C00BB463500DE
:103A600047464E461BE680231000DB0018401A42F2
:103A700000D10FE1112118008A430D920D9A802385
:103A800011009B0019408C461A4269D18023110015
:103A90005B00194089460C9904310F911A4200D0FD
:103AA000CAE113005B0600D5F0E013001B0600D44A
:103AB00059E20C9B00229B5ED9175A184A4092B2D9
:103AC000D90F0C91002B00D1F9E1100014AA9446F3
:103AD00042461F23149252466344A84616944D460C
:103AE0000400B946B2461F00159201E0202D0FD008
:103AF00020000A21FEF70AFA01357E1930313170B3
:103B000020000A21FEF702FA26000400092EEDD853
:103B1000149B4F46A94645469846159B56469A46DD
:103B2000169C0D9B069343460593534604930A2324
:103B300003930C9B02934B4601931CAB2200009312
:103B400059463B002800FEF747FE0F9B04000C93EC
:103B500072E4C046292700100C239A431000E7E6C0
:103B600007220C9B07339343013294469C446246E0
:103B70000C920CCBD90F0F911100194300D191E099
:103B8000D9171391129151401091139959401191E5
:103B900010981199129A139B801A994110901191C3
:103BA00014AA0023944642469946149252461F3363
:103BB0006344A846B24616944E46109C119DB946E1
:103BC00015921F0001E0202E10D0200029000A22AB
:103BD0000023FEF7D9F9013630322B00BA550D001B
:103BE00022000400002BEED1092AECD8149B10947B
:103BF000119545469846159B4F46B14656469A46FE
:103C0000169C0D9B069343460593534604930A2343
:103C100003930F9B02934B4601931CAB220000932E
:103C200059463B002800FEF7D7FD0400FFF704FCCF
:103C30000F9B984500D8C1E18023DB000D934346DC
:103C40000F9A1B199B1A994633002E004D46B94610
:103C50005F469B460C9122004B46013439002020E0
:103C6000B047AC42F7D143460C9901330F930B7820
:103C700035000C935E46BB464F46002B00D10EE547
:103C80000D9B002B00D1F6E4002319E60C9B1B785A
:103C90001A0015E710239A430D92EFE60C9B1B7850
:103CA000099361E6002399460028AAD10022002347
:103CB0001092119374E70C9B2200187859463B0030
:103CC000A8474C468BE50C9AFA3BFF3B07329A43D8
:103CD0000133994691444B460C93136852681592F0
:103CE0001A4306D11032904300220992002900D0D5
:103CF00081E06122810600D54122D2B20A9214AA43
:103D000091460A9A00210A3A149242461792524664
:103D100018925A460991B3461F311E000F9B494421
:103D2000BA4619941A950024674698468946159D07
:103D300016901B920AE03032D2B24B4601341A552B
:103D4000A8454AD0202C4AD006000D003A00002396
:103D500030002900FEF718F9D2B2092AEBD9149BDA
:103D60009C466244D2B2E8E76123820600D5412333
:103D7000DBB20A3B0C93434614A91F228C461593D1
:103D800053466244A046B2464C461797A9461700D0
:103D9000099D0D9E1490169308E03033DBB2013478
:103DA0003B55B5420ED3202C0CD005003100280025
:103DB000FEF7ACF8CBB20929EFD90C9A94466344CC
:103DC000DBB2ECE7159B4D46A14644469846169B50
:103DD000564614989A46179FD0E5B742B2D9179B1A
:103DE00057469846189B5E469A461B9B09949B46ED
:103DF0001698199C1A9D43460593534604930D9BB0
:103E00000690039300230293099B05E70F9B9845B7
:103E100000D914E701330F932DE4102311009943C7
:103E20000D91692800D0BAE080231000DB00184013
:103E30001A4200D122E61DE60C9B1B68DA0F110026
:103E4000002B00D18CE0DA179818504014AA914644
:103E500042461F23149252464B44A046A946169749
:103E600004006546B2461F000C91159201E0202D1A
:103E70000FD020000A21FEF749F801357E193031B4
:103E8000317020000A21FEF741F826000400092EB7
:103E9000EDD8149B444698460C9BAC461900159BE4
:103EA00056464D469A46169F0D9B029106934346F1
:103EB0000593534604930A23039363463CE6002884
:103EC00000D02EE602E60C9B1B689946002B03D11E
:103ED00010339843002938D16123820600D541234D
:103EE000DBB20A3B0C9343461693534614A91F2298
:103EF0008C4617932B006244A0464D46B246189755
:103F000099461700149C0D9E159008E03033DBB2E3
:103F100001343B55B5420ED3202C0CD005003100A6
:103F20002800FDF7F3FFCBB20929EFD90C9A94468C
:103F30006344DBB2ECE7169B149444469846179B07
:103F400056464D469A461598189F43460593534644
:103F500004930D9B0690039300230293149BEBE5BF
:103F60000028A1D172E70C9B1B68D9175A184A4048
:103F7000A6E580231000DB0018409C460F901A42F3
:103F80000FD00220030013400F93104219D00023DA
:103F9000A1460F934CE50C9B1B680993E4E40A00CF
:103FA00034E40223180010400D90134200D03EE587
:103FB0004346002B00D042E6FFF771FB01330F931D
:103FC0007FE463460D93F3E70CB430B585B008ACDD
:103FD00008CC064D0A000094010028000394FFF766
:103FE00003FA05B030BC08BC02B018472127001006
:103FF00010B50C0084B00394012402A90290009330
:10400000034813006242FFF7EFF904B010BDC04649
:10401000B529001010B5094A0300146884B0002CBB
:1040200008D0012200910648524203A9A04701206E
:1040300004B010BD00F0B8F90020F9E7C854002022
:10404000A52900100021002010B5FDF7FFFCC04697
:10405000094A03001068002805D00849C3188B429C
:1040600007D81360704706480449C31810608B4294
:10407000F7D901204042F5E7384F00200000042026
:10408000AC08032010B5FFF7DDFFC04670B5FDF7A3
:10409000D7FD074D074EB54209D20024013E761BDD
:1040A000B60808CD984723000134B342F9D170BD5A
:1040B000BCD50210C8D50210030010B508001100CD
:1040C0001B68984710BDC046F0B5C64600B5437D95
:1040D00007000C001600002B46D0002A17DD0B78D5
:1040E0000A2B24D000239846012E13D00125290045
:1040F000635C01350A2B26D0B542F8D1464509DC70
:10410000A419013C23780D3B5A4253413B7580BCB6
:10411000B846F0BD4346E018A419F11A013C3B68CB
:10412000984723780D3B5A4253413B75EFE7037D97
:10413000002BD7D102210F483B689847012EDFD0D2
:1041400001239846D2E7631E5B5C0D2BD4D08845D3
:1041500004DA4346C91AE0183B689847022105482B
:104160003B68A8469847C7E70368110020009847B6
:10417000CDE7C046E0230310F0B5C6460B68060045
:104180000C0000B5802B06D05A1C2260E418267162
:1041900080BCB846F0BD0F4B1D68002D16D00B1D1E
:1041A00098460D4F02E02D69002D0FD02B68002B93
:1041B000F9D03B68002B01D0AB42F4D12800414636
:1041C0002268FFF781FF2D69002DEFD10122002326
:1041D000DBE7C046F42200204C230020F0B5454622
:1041E000DE464E465746E0B583B091461C008046F9
:1041F0000D00FDF7CDF90023304A12184B41002B7A
:1042000002DA01222E4B52422E4908008A4629F03A
:10421000A7F907006B1C03D1404628F0EFFF05000B
:10422000002C27D0284E294B1C68002C18D04B4658
:10423000002B21D1264B994602E02469002C0FD097
:104240002368002BF9D04B461B68002B01D09C4201
:10425000F3D120002A004146B0472469002CEFD159
:10426000002F26D1280003B0F0BCBB46B246A946B9
:10427000A046F0BD174ED6E7154B99460A239B463C
:1042800002E02469002CEBD02368002BF9D04B46C8
:104290001B68002B01D0A342F3D12A004146200025
:1042A000B0476B465A462000DA71D91D0122B0474B
:1042B000E7E7504629F02CF9D4E7C04640420F000A
:1042C000FFFFFF7FF00B0020C9400010F422002008
:1042D0004C230020B94000100A4A1368002B05D176
:1042E0000CE01A001B691032002B07D08342F8D172
:1042F000002902D118691060196170470029FCD0AB
:104300001060FAE7F422002010B500F0ABF90120AC
:1043100010BDC046F0B5CE46474680B583B06B466B
:104320000600DD1D2870FDF733F90023194A121825
:104330004B41002B02DA0122174B52421749080069
:10434000884629F00DF9164B81461C68002C14D0C4
:10435000144F02E02469002C0FD02368002BF9D001
:104360003B68002B01D09C42F4D12000012229009F
:10437000FFF7AAFE2469002CEFD14B46002B05D194
:10438000300003B0C0BCB946B046F0BD404629F08D
:10439000BFF8F5E740420F00FFFFFF7FF00B002062
:1043A000F42200204C23002070B5040028F026FFE2
:1043B00001230100050001222000FFF70FFF084B39
:1043C0001C68002C06D06368002B05D09847246930
:1043D000002CF8D1280070BD2469002CF3D1F9E736
:1043E000F4220020F0B5CE46474680B5A3B00400C5
:1043F0000D00FDF7CDF80023274A12184B41002B82
:1044000002DA0122254B5242254E300029F0A8F84D
:1044100000232200019307002B00224801A9FFF787
:10442000E7FD214B804699461C68019B002B1AD062
:10443000002C2FD01D4D02E02469002C0FD02368E2
:10444000002BF9D02B68002B01D0A342F4D120001F
:10445000019A02A9FFF738FE2469002CEFD14B46E0
:104460001C6800230193002C06D06368002B0BD03E
:1044700098472469002CF8D1002F07D1404623B07B
:10448000C0BCB946B046F0BD2469ECE7300029F065
:104490003FF8F3E70194EFE740420F00FFFFFF7F93
:1044A000F00B002079410010F42200204C23002062
:1044B0000FB400B583B004A901C90191FFF792FFC1
:1044C00003B008BC04B01847F0B5002915DD0E4B49
:1044D0000D271A680D4B0E4CD3185D426B414518E1
:1044E00020215B001E5F0478A64207D09369194221
:1044F000FCD101301460A842F5D1F0BD9369194296
:10450000FCD11760F2E7C046940601200080FCBF92
:1045100090060120204B70B504000D1E1E682ADD98
:10452000002010211D4B013C1A689369194214D1D7
:10453000013093691942FCD1136823548542F4D1A8
:10454000002E08D050239363516B183B0B40144945
:104550008C4662441360280070BD002E08D05023A2
:104560009363516B183B0B400D498C4662441360BA
:104570000028F1D10CE0002E0AD05022074B1B6816
:104580009A63596B183A0A4005498C4663441A608D
:1045900003204042E0E7C0462C140020940601208E
:1045A00034100000064B10B51B68002B06D000210C
:1045B000044A12689163044A1068984710BDC046C7
:1045C0002C14002094060120301400200822034BF4
:1045D00019688B691A42FCD17047C04694060120C5
:1045E000F8B51A4F1A4B3A680500D31858424341A0
:1045F000184E14331C003368002D02D0002B0FD04E
:10460000F8BD002BFCD0002120009563FCF764F975
:1046100020001149FCF7A2FA104B35601D60EFE74E
:104620000E4B200019600C493560FCF773F901212D
:104630002000FCF751F950223B689A63596B183AF5
:104640000A4007498C4663441A60D9E79406012062
:104650000080FCBF2C140020A54500103014002061
:10466000341000000D4B10B51B780D4B0D4C1B7812
:104670000D4B02211B780D4B00202360FBF77EFFC2
:1046800002210120FBF77AFFE12120684902FCF7B3
:10469000CDFF01210648FFF71FFE10BDD0F5061023
:1046A000CCF5061094060120C8F506100040034022
:1046B0003006002035230122C25400207047C04636
:1046C0007047C04610B54B6988690C0098470023B5
:1046D000E0610022002120690BF0D6FF10BDC0462A
:1046E000012110B549420400006A0CF01DFB342280
:1046F000A35C0133A35410BDF0B5C64606001400F8
:104700001D00984600B5184F7B6A984507D8BA6ACD
:10471000A24202D380BCB846F0BD9845FAD1FCF75E
:1047200037FF22002B00121A8B411000002B06DDF0
:10473000706A0E490CF056FA0028E5D0EAE7002B23
:10474000E8D1002AE6D00A4B9A42F1D8094BFA2167
:104750009C4689006044FDF7D9FB411C706A0CF04F
:1047600041FA0028D0D0D5E70040054061EA0000BA
:1047700000879303E703000070B514001D00FCF7E9
:1047800007FF241A8D41002D03DD0A480EF0E2FBDD
:1047900070BD002D0CD1002C0AD0074B9C42F4D8E0
:1047A000FA21064B8900E018FDF7B0FB0130EDE778
:1047B0000020EBE761EA000000879303E7030000B5
:1047C00010B5036B040082B0002B0BD0036802000D
:1047D00014491B699847A06A002803D00121494267
:1047E0000CF000FAE06A002805D000230022052121
:1047F00000930FF0A7FA206A002801D00CF0A8FA65
:10480000606A002801D00CF0A3FAA06A002801D049
:104810000CF09EFA382200212000FDF775FF02B04F
:1048200010BDC046B5460010F0B5050089B0006A5D
:104830000F0016000BF01AFF04000DF02DFE84424D
:1048400028D0202200216846FDF75EFF134B03228B
:10485000002101200193059706960BF0B5FE2B6809
:1048600069460490DB69280098472B686946280050
:104870005B6A98470121049849420CF0B3F92B6810
:1048800069461B6A2800984704980CF061FA07985B
:1048900009B0F0BDFDF7CEF9D3E7C046C54600101C
:1048A000012370B50400006B82B00B7200280CD09D
:1048B000EFF30585EDB2002D09D0002100220EF0A6
:1048C000F9FE0021606A0CF0C1F802B070BD0DF075
:1048D000E3FD266B8642F8D002230022002130003F
:1048E00000950EF0CBFD002300220021606A0BF042
:1048F000CBFEEAE770B582B00FF048FA0400006B17
:1049000000280CD0EFF30585EDB2002D09D0002171
:1049100000220EF0CFFE0021606A0CF097F802B082
:1049200070BD0DF0B9FD266B8642F8D0022300223F
:104930000021300000950EF0A1FD0023002200218F
:10494000606A0BF0A1FEEAE7F0B557464E46DE4638
:1049500045466D4BE0B59A46060085B00122002120
:10496000002052420EF0D4FC3523F35C002B35D1ED
:104970000121306A49420CF0D7F93422B35C01338B
:10498000B35453461F685B689846300000F048FCFB
:1049900004000D00B84241D0FCF7FAFD22002B00C4
:1049A000121A8B411000002B28DD584AF06A0023B0
:1049B000042100920FF0C6F90028E6D0342399466E
:1049C000F35C012B2FD04A46013BB354306A0BF005
:1049D0007BFF40BF3523F35C002BBFD000230022B8
:1049E0000021B06A0BF050FE00200EF031F905B046
:1049F000F0BCBB46B246A946A046F0BD002BC4D1D0
:104A0000002AC2D0424B9A42CFD8424BFA219C4650
:104A100089006044FDF77AFA421CC7E74145BBD1E3
:104A200001225242C2E7336B9B460DF035FD8345B0
:104A300028D04B464A46F35C013BB354306A0BF036
:104A400043FF306B0028C4D0EFF30587FFB2002F7F
:104A500029D0002200210EF02DFE0021706A0BF0FB
:104A6000F5FFB6E7002B0DD1002A0BD0284B9A4258
:104A700041D9264AF06A0023042100920FF062F91E
:104A8000002830D1300000F0CBFB02900391B842F7
:104A90001DD0FCF77DFD029A039B121A8B4110007A
:104AA000002BE6DCDEE70DF0F7FC0300306B9842EC
:104AB00000D18EE702230022002100970EF0DEFCD9
:104AC000002300220021706A0BF0DEFD81E74145E2
:104AD000DFD101225242F06A0023042100920FF03C
:104AE00031F90028CED03422B35C013BB354306A94
:104AF0000BF0EAFE6DE7074BFA219C468900604403
:104B0000FDF704FA421CB5E78821031061EA0000B2
:104B100000879303E7030000F0B5CE46474688467A
:104B200001210400342580B5494283B0006A0CF0AD
:104B3000FBF8635D414601336355200000F026FB1E
:104B4000635D8046012B0AD0013B6355206A0BF060
:104B5000BBFE404603B0C0BCB946B046F0BD236BB7
:104B600099460DF099FC814529D0635D013B635561
:104B7000206A0BF0A9FE206B0028EAD0EFF3058530
:104B8000EDB2002D12D10DF087FC266B8642E0D0ED
:104B9000022300220021300000950EF06FFC00235C
:104BA00000220021606A0BF06FFDD2E70022002195
:104BB0000EF080FD0021606A0BF048FFC9E71D4B35
:104BC0001D685B689946200000F02AFB06000F0074
:104BD000A84229D0FCF7DCFC32003B00121A8B41C2
:104BE0001000002B10DD144AE06A0023042100921B
:104BF0000FF0A8F80028E6D03422A35C013BA354B0
:104C0000206A0BF061FEA4E7002BDCD1002ADAD089
:104C10000A4B9A42E7D80A4BFA219C468900604425
:104C2000FDF774F9421CDFE74945D3D10122524216
:104C3000DAE7C0468821031061EA00000087930389
:104C4000E7030000F0B5C646342500B5435D040017
:104C500082B0012B08D0013B4355006A0BF034FEB3
:104C600002B080BCB846F0BD036B98460DF014FC52
:104C7000804529D0635D013B6355206A0BF024FE1B
:104C8000206B0028ECD0EFF30585EDB2002D12D19A
:104C90000DF002FC266B8642E2D0022300220021A6
:104CA000300000950EF0EAFB002300220021606A2C
:104CB0000BF0EAFCD4E7002200210EF0FBFC0021FF
:104CC000606A0BF0C3FECBE71C4B1D685B6898461F
:104CD000200000F0A5FA06000F00A84229D0FCF73A
:104CE00057FC32003B00121A8B411000002B10DDE4
:104CF000134AE06A0023042100920FF023F80028F1
:104D0000E6D03422A35C013BA354206A0BF0DCFD07
:104D1000A6E7002BDCD1002ADAD00A4B9A42E7D86A
:104D2000094BFA219C4689006044FDF7EFF8421CCC
:104D3000DFE74145D3D101225242DAE7882103104F
:104D400061EA000000879303E7030000F0B5CE4658
:104D50004746884601210400342580B5494283B086
:104D6000006A0BF0E1FF635D4146013363552000AB
:104D700000F044FA635D8046012B0AD0013B635585
:104D8000206A0BF0A1FD404603B0C0BCB946B04656
:104D9000F0BD236B99460DF07FFB814529D0635D03
:104DA000013B6355206A0BF08FFD206B0028EAD091
:104DB000EFF30585EDB2002D12D10DF06DFB266BE2
:104DC0008642E0D0022300220021300000950EF040
:104DD00055FB002300220021606A0BF055FCD2E74E
:104DE000002200210EF066FC0021606A0BF02EFE0E
:104DF000C9E71D4B1D685B689946200000F010FA5A
:104E000006000F00A84229D0FCF7C2FB32003B008D
:104E1000121A8B411000002B10DD144AE06A0023A7
:104E2000042100920EF08EFF0028E6D03422A35C0D
:104E3000013BA354206A0BF047FDA4E7002BDCD113
:104E4000002ADAD00A4B9A42E7D80A4BFA219C464C
:104E500089006044FDF75AF8421CDFE74945D3D189
:104E600001225242DAE7C0468821031061EA0000BD
:104E700000879303E7030000F0B5CE464746884617
:104E800001210400342580B5494283B0006A0BF04B
:104E90004BFF635D414601336355200000F09CF9F0
:104EA000635D8046012B0AD0013B6355206A0BF0FD
:104EB0000BFD404603B0C0BCB946B046F0BD236B05
:104EC00099460DF0E9FA814529D0635D013B6355B0
:104ED000206A0BF0F9FC206B0028EAD0EFF305857F
:104EE000EDB2002D12D10DF0D7FA266B8642E0D03C
:104EF000022300220021300000950EF0BFFA0023AB
:104F000000220021606A0BF0BFFBD2E700220021E3
:104F10000EF0D0FB0021606A0BF098FDC9E71D4B35
:104F20001D685B689946200000F07AF906000F00C2
:104F3000A84229D0FCF72CFB32003B00121A8B410F
:104F40001000002B10DD144AE06A002304210092B7
:104F50000EF0F8FE0028E6D03422A35C013BA354F7
:104F6000206A0BF0B1FCA4E7002BDCD1002ADAD0D8
:104F70000A4B9A42E7D80A4BFA219C4689006044C2
:104F8000FCF7C4FF421CDFE74945D3D1012252425E
:104F9000DAE7C0468821031061EA00000087930326
:104FA000E7030000F0B5CE464746884601210400DD
:104FB000342580B5494283B0006A0BF0B5FE635DCD
:104FC000414601336355200000F0F4F8635D8046EC
:104FD000012B0AD0013B6355206A0BF075FC40465B
:104FE00003B0C0BCB946B046F0BD236B99460DF086
:104FF00053FA814529D0635D013B6355206A0BF06C
:1050000063FC206B0028EAD0EFF30585EDB2002D9C
:1050100012D10DF041FA266B8642E0D00223002225
:105020000021300000950EF029FA00230022002113
:10503000606A0BF029FBD2E7002200210EF03AFB58
:105040000021606A0BF002FDC9E71D4B1D685B681B
:105050009946200000F0E4F806000F00A84229D08D
:10506000FCF796FA32003B00121A8B411000002B1D
:1050700010DD144AE06A0023042100920EF062FE63
:105080000028E6D03422A35C013BA354206A0BF035
:105090001BFCA4E7002BDCD1002ADAD00A4B9A4291
:1050A000E7D80A4BFA219C4689006044FCF72EFFA2
:1050B000421CDFE74945D3D101225242DAE7C0461C
:1050C0008821031061EA000000879303E7030000D2
:1050D00070B5040082B034220D0004300021FDF7C9
:1050E00013FB254BD0262360012336062383336828
:1050F0000420A3760BF0B2FB0322002120620120E2
:105100000BF062FA03220021606201200BF05CFACE
:1051100001211A4BA0620022009319482300494242
:105120000EF0B4FD236AE062002B1BD0636A002BF3
:1051300018D0002816D0230030336A6801932B68FA
:1051400010490093104823000DF0FCFC012809D100
:10515000AB685A1C0DD00121206B99400CF0F0FB7C
:10516000012004E0236820005B6B9847002002B018
:1051700070BD3368EFE7C04600240310F548001007
:1051800098D70210ACD70210494900108368002B51
:1051900004D107E01A68002A06D013008B42F9D127
:1051A000002005E0030008331960002301200B6094
:1051B0007047C046020083680832002B04D109E022
:1051C0001A001B68002B05D08B42F9D11B68012007
:1051D000136000E0002070474368002B04D107E013
:1051E0001A68002A05D013008B42F9D1002004E090
:1051F000031D1960002301200B6070474368021DE6
:10520000002B04D109E01A001B68002B05D08B424B
:10521000F9D11B680120136000E000207047C046F0
:10522000F0B55746DE464646C0B53E4B82B01A68DA
:105230005B680092019383688246002B2CD0082380
:1052400053449B46FCF7A4F953469B6804000D00A9
:105250005F46002B20D000221E0094469846B2687C
:10526000F36820002900801A9941002902DB14000C
:105270001D00BC4637003668002EF0D1624643461A
:10528000002A48D0116850460B6813604B68984755
:1052900053469B68002BD5D153465C68002C29D01F
:1052A00000255646237A002B31D0210063682572F1
:1052B000300098472468002CF4D1B168B246002928
:1052C00018D0009C019D0E0003E004000D00002E8C
:1052D0000ED0330022009868D9682B00121A8B4137
:1052E0003668002BF1DCF2D1002AEED1002EF0D18D
:1052F00000940195009B019C524618002100136107
:10530000546102B0E0BCBB46B246A846F0BD24687A
:10531000002CC7D1D1E7190053465C68002CBFD1DF
:10532000CFE7C046882103100022024B00201A60FC
:105330007047C046E854002010B500230022002129
:105340000BF0A2F910BDC046154B10B51A78002A13
:105350001ED1144A00211060012201201A7002326D
:105360000BF032F903220400002101200BF02CF98C
:105370000D4B210018600D4805F084FA0121200032
:1053800049420BF02FFC20000BF0E2FC012010BD85
:10539000054B00220021186800230BF075F9F5E792
:1053A0008D080320E85400206C04012039530010BC
:1053B00010B50368002202491B69984710BDC0461A
:1053C0002953001070B5094C2368002B08D1084DF3
:1053D0000121286849420BF005FC2368002BF7D017
:1053E000206803685B68984770BDC046E854002099
:1053F0006C040120034B10B5186803689B6898473C
:1054000010BDC046E854002010B501F03BFA05F08D
:10541000A5FA00F021FB00F02FFD00F0D7FD02F00F
:10542000B5FF01F0BDFA00F085F902F031FF10BDC3
:1054300040BA80B27047C04600BA7047F0B5C64661
:10544000584D04002B68884600B5002B03D02A7AFB
:10545000824200D179E0544E2701EB68002B02D044
:105460002A7DA24267D0AB69002B03D02022AA5C20
:10547000A24256D06B6A002B03D02C22AA5CA24217
:1054800029D03B191B01F318DB7B002C32D0B27AF8
:10549000022A65D0012C32D08D225200B25C022A41
:1054A00062D0022C2FD0414AB25C022A00D16EE0B9
:1054B000032B0DD83E4D9B00585903F029F90022CB
:1054C0003F193F01F719FB7B9B005A510423FB73E3
:1054D00080BCB846F0BD3819000110304146AA6AB8
:1054E0003018984700236B623B191B01F318DB7BD4
:1054F000002CCCD18D225200B25C022A4CD02B4A17
:10550000B25C022A3ED02B4AB25C022AD0D12A4A8F
:10551000B25C9A42CCD104223B191B01F318DA7316
:10552000D6E73819000110304146EA69301898472B
:105530000023AB619EE738190001103041462A690B
:10554000301898470023EB608DE707013818164E96
:10555000000110306A683018984700232B607CE700
:10556000F27B9A4296D1D6E72022FF32B25C9A4271
:10557000D1D0022CC7D00D4AB25C022A07D0032C2E
:10558000C1D195E70D4AB25C9A42BCD1C3E70B4A40
:10559000B25C9A42F3D1BEE72022FF32B25C9A425B
:1055A000E9D1B8E77C1E0020B41E00202A020000CA
:1055B0006C1E00203A0300003F0300002F02000091
:1055C000564BF0B54546DE46574698464E460301D3
:1055D000E0B59B461D1843462D015C19E37A070090
:1055E00089B0012B00D996E04D4A9B00D658019214
:1055F000002E00D185E010354544280027F0FEFD3F
:10560000A022123081B29200362000F027FE81469F
:10561000002869D005AE0C2200213000FDF774F897
:105620002089FFF705FF01233080B3703100FF337D
:105630000C224846B38001F05BF83A4B0C269A46A0
:105640004346013D029703936A786F1C3B00002498
:105650002E2A07D15AE05A780134E4B2591C2E2A76
:1056600049D00B00002AF6D1DA1B92B290461D00F9
:105670002200B218524534DC22003100484601F0C5
:10568000D3F8731C9BB2A41942463900484601F076
:105690006BF8A4B22B78661CB6B2002BD4D1039B56
:1056A0000022310048469846029F01F0BDF81E4B8B
:1056B00002340422049304A9A3B2484601F054F82A
:1056C0003B0001995B448C461B014344DA7ADB7B47
:1056D00016499B009200585862443523494602F00F
:1056E000A7FF484600F0D2FE09B0F0BCBB46B24668
:1056F000A946A046F0BD5B1B9BB2984622000D0058
:10570000B7E70021FFF79AFEA672EDE700233D0000
:1057100000229846ADE70648FAF7F0FFB41E0020D5
:10572000AC1E0020FEFF0000000100016C1E0020E6
:10573000C0D702107047C046012800D97047054BFA
:105740008000002902D00A68C250F7E7024A1268B6
:10575000C250F3E7AC1E002004270310F8B54746FB
:10576000CE46454E454B80B58D27340000259846E2
:105770007F00A37A022B32D029D8002B1DD0404BBA
:10578000994605F083FCB37A80B2022B3FD0F35DDB
:10579000022B42D04346F35C022B47D04B46F35CCE
:1057A000022B4CD002230122A37200232081E3723A
:1057B000280022736373FFF703FF01351134EDB244
:1057C000FF34042DD5D1C0BCB946B046F8BD032B7B
:1057D0004ED12368002B13D10023A372EDE7237B66
:1057E000013BDBB22373002BE7D1637B0133DBB2D8
:1057F0006373042B29D023732800FFF7E1FEDCE755
:10580000013B2360002BD8D10023A372D5E7338955
:105810008342B6D0F35D022BBCD11733FF33F35A6A
:105820008342AED04346F35C022BB7D18A239B0060
:10583000F35A8342A5D04B46F35C022BB2D1CE2360
:105840009B00F35A8342ADD19BE7E37A002B08D14A
:105850000C4A5268002A04D001226373E272227358
:10586000CAE700212800FFF7E9FD0023A372A4E79F
:105870000548FAF743FFC046B41E00202A02000084
:105880003A030000AC1E0020D8D702100123F0B567
:105890001E0000250640184205D0002951DD05787C
:1058A00001392D02013003221300034010424FD171
:1058B000072963DD0822524294468C4467460F3222
:1058C0009743020004000832BF1822689A189A42CF
:1058D0009B415B42D21863680834D31893429241CB
:1058E00052429B18BC42F0D1CA086146013AD2002C
:1058F0008018891A1A040830120C1B0C9B180129F5
:1059000010DD02889B18032905DD42889B180529B4
:1059100001DD82889B184A08013A5200023980183A
:10592000891A0230012919D0EB181A0C1B041B0C20
:10593000D318180C1B041B0CC018002E02D180B207
:10594000F0BD0020030600041B0C000E1843F6E710
:10595000012911DD038802390230A9E7FF2102780D
:105960008D431543ED182B0C2D042D0C5B19180CD1
:105970001B041B0CC018E0E70023D3E71A00BCE7A8
:10598000F8B557464E46DE464546E0B591460A9A7A
:105990008A4611681B680A04120C090C5218190473
:1059A000090C52181B0C9B181A0C1B041B0CD31847
:1059B0001F0C1B041B0C0400FF18002825D000231B
:1059C0009B46FF3301269846658960682900FFF7EA
:1059D0005DFFC019070C0004000C3F182E4209D0CF
:1059E0005B46414673403A069B463B0A120C0B400D
:1059F0001A4317002468002CE6D15B46002B04D024
:105A00003A063F04120C3F0E17435046FFF710FDB5
:105A100004004846FFF70CFD2318DB191A0C1B0481
:105A20001B0CD318180C1B041B0CC018C04380B2ED
:105A3000F0BCBB46B246A946A046F8BD10B582B040
:105A4000049C0094FFF79CFF02B010BD10B5FFF757
:105A50001DFFC04380B210BD03220E4B10B593430F
:105A60000D4AFA211360002209011A710B4A5818D5
:105A70001060012219600271094A0A485A500A4A04
:105A8000136004F07BFF002800D110BD0748FAF72F
:105A900035FEC046BBF10020B0F10020B4F100207B
:105AA000A00FA00F80550020D8540020F8D7021076
:105AB000F8B5DE4657464E464546E0B5002869D063
:105AC000830700D07FE00400404D083C2B68A342D0
:105AD00000D96CE03E4F0C303B68834267D33D4EAB
